:100000000C9434000C9449000C9449000C94490061
:100010000C9449000C9449000C9449000C9449003C
:100020000C9449000C9449000C9449000C9449002C
:100030000C9449000C9449000C9449000C9449001C
:100040000C9449000C9449000C9449000C9449000C
:100050000C9449000C9449000C9449000C944900FC
:100060000C9449000C94490011241FBECFEFD8E036
:10007000DEBFCDBF11E0A0E0B1E0E6E7F4E002C0F2
:1000800005900D92A830B107D9F70E94AD010C94EC
:1000900039020C940000CF93DF93EC016A8188E071
:1000A0000E94D5006B81619584E00E94D5006E812D
:1000B0006F508CE00E94D5006C8182E00E94D500D8
:1000C0006D8161958AE00E94D5006F816F5086E056
:1000D0000E94D500888180FF3FC05A98529A88813B
:1000E00081FF3DC05898509A888182FF3BC0599843
:1000F000519A888183FF39C045983D9A88819981BA
:1001000088279073892BA1F143983B9A8881998124
:1001100096FF31C044983C9A8881998193FF2EC004
:100120005E98569A8881998192FF2BC04098389AA0
:100130008881998191FF28C04198399A8881998155
:1001400090FF25C02998219A888184FF23C0429876
:100150003A9ADF91CF91089552985A9AC0CF509809
:10016000589AC2CF5198599AC4CF3D98459AC6CF54
:100170003B98439ACBCF3C98449ACECF56985E9A00
:10018000D1CF3898409AD4CF3998419AD7CF219877
:10019000299ADACF3A98429ADCCF9CB590619CBDFF
:1001A0008EBD0DB407FEFDCF0895CF93C62F2A98BC
:1001B0008F700E94CD008C2F0E94CD002A9A88E279
:1001C0008A95F1F7CF910895FC019C01285F3F4F7C
:1001D0001192E217F307E1F75D9A559A21E03CE0AE
:1001E0005D983A95F1F732E05D9A3A95F1F72A95E4
:1001F000B1F75D9A21E034E05D983A95F1F73AE085
:100200005D9A3A95F1F72A95B1F75D9A2CE03CE0BA
:100210005D983A95F1F732E05D9A3A95F1F72A95B3
:10022000B1F75D9A22E034E05D983A95F1F73AE053
:100230005D9A3A95F1F72A95B1F75D9A28E03CE08E
:100240005D983A95F1F732E05D9A3A95F1F72A9583
:10025000B1F75D9A21E034E05D983A95F1F73AE024
:100260005D9A3A95F1F72A95B1F75D9A5D9A55989E
:10027000FC01012C812D30E823E006C02FEF2A95E8
:100280004D99E9F799F027E02A954D9BE9F719F088
:10029000032A5B9A5B98369531F4019230E8012C81
:1002A0008395883019F04D9BF1F7E8CFE81B81E08A
:1002B0000895DC01FB0112968C91129780831396AE
:1002C0008C911397818314968C9114978283159641
:1002D0008C911597838316968C9116978483179625
:1002E0008C918583089590E08F579109860F911D19
:1002F00097FD05C08F3F910509F01CF4089580E03B
:1003000008958FEF0895681718F0681B862F0895D9
:1003100080E008950F931F93CF93DF93EC018B013F
:10032000FB0160818A810E9473018A83F8016181E7
:100330008B810E9473018B83F80162818C810E9402
:1003400073018C83F80163818D810E9473018D8319
:10035000DF91CF911F910F910895CF93DF93CDB788
:10036000DEB768970FB6F894DEBF0FBECDBF9EE034
:1003700088E10FB6F894A895809360000FBE909323
:100380006000F894539A8FEF85B988B98BB981E0F2
:1003900084B987B98AB9229A239A259A2A9A82E53A
:1003A0008CBD88E08E010F5E1F4FF801982F1192CF
:1003B0009A95E9F75E01E9E0AE0EB11CF501982FC0
:1003C00011929A95E9F7E0E0F1E0DE0111960190D3
:1003D0000D928A95E1F7E12CF12CD12C4E01E9E147
:1003E0008E0E911CA895F8011192E815F905E1F718
:1003F000C8010E94E4008A89882319F1DD2049F0B0
:10040000B501C8010E948A01C8010E944B00F12C6D
:100410000DC0F9E0FE1588F4B501C8010E9459012C
:10042000C8010E944B00F12CDD24D394EBEAF6E2E4
:100430003197F1F700C00000D5CFE394CE010196CB
:10044000E4CF81E0D8120FC0F3949AE09F1558F4DE
:1004500098E088E10FB6F894A895809360000FBEED
:1004600090936000FFCFCE0101960E944B00E12CDB
:06047000DDCFF894FFCF80
:08047600008080808080FFFF00
:00000001FF
